{
  "contractName": "Library",
  "abi": [
    {
      "inputs": [
        {
          "internalType": "address",
          "name": "libTokenAddress",
          "type": "address"
        },
        {
          "internalType": "address payable",
          "name": "libWrapperAddress",
          "type": "address"
        }
      ],
      "stateMutability": "payable",
      "type": "constructor"
    },
    {
      "anonymous": false,
      "inputs": [
        {
          "indexed": false,
          "internalType": "bytes32",
          "name": "id",
          "type": "bytes32"
        },
        {
          "indexed": false,
          "internalType": "address",
          "name": "client",
          "type": "address"
        }
      ],
      "name": "BookBorrowed",
      "type": "event"
    },
    {
      "anonymous": false,
      "inputs": [
        {
          "indexed": false,
          "internalType": "bytes32",
          "name": "id",
          "type": "bytes32"
        },
        {
          "indexed": false,
          "internalType": "address",
          "name": "client",
          "type": "address"
        }
      ],
      "name": "BookReturned",
      "type": "event"
    },
    {
      "anonymous": false,
      "inputs": [
        {
          "indexed": false,
          "internalType": "address",
          "name": "sender",
          "type": "address"
        },
        {
          "indexed": false,
          "internalType": "uint256",
          "name": "amount",
          "type": "uint256"
        }
      ],
      "name": "LIBBuy",
      "type": "event"
    },
    {
      "anonymous": false,
      "inputs": [
        {
          "indexed": false,
          "internalType": "bytes32",
          "name": "id",
          "type": "bytes32"
        }
      ],
      "name": "LogAddedBook",
      "type": "event"
    },
    {
      "anonymous": false,
      "inputs": [
        {
          "indexed": true,
          "internalType": "address",
          "name": "previousOwner",
          "type": "address"
        },
        {
          "indexed": true,
          "internalType": "address",
          "name": "newOwner",
          "type": "address"
        }
      ],
      "name": "OwnershipTransferred",
      "type": "event"
    },
    {
      "inputs": [],
      "name": "LIBToken",
      "outputs": [
        {
          "internalType": "contract IERC20",
          "name": "",
          "type": "address"
        }
      ],
      "stateMutability": "view",
      "type": "function"
    },
    {
      "inputs": [
        {
          "internalType": "uint256",
          "name": "",
          "type": "uint256"
        }
      ],
      "name": "allBookIDs",
      "outputs": [
        {
          "internalType": "bytes32",
          "name": "",
          "type": "bytes32"
        }
      ],
      "stateMutability": "view",
      "type": "function"
    },
    {
      "inputs": [
        {
          "internalType": "bytes32",
          "name": "",
          "type": "bytes32"
        }
      ],
      "name": "books",
      "outputs": [
        {
          "internalType": "string",
          "name": "name",
          "type": "string"
        },
        {
          "internalType": "uint256",
          "name": "availableCopiesCount",
          "type": "uint256"
        }
      ],
      "stateMutability": "view",
      "type": "function"
    },
    {
      "inputs": [
        {
          "internalType": "address",
          "name": "",
          "type": "address"
        },
        {
          "internalType": "bytes32",
          "name": "",
          "type": "bytes32"
        }
      ],
      "name": "borrowedBooks",
      "outputs": [
        {
          "internalType": "bool",
          "name": "",
          "type": "bool"
        }
      ],
      "stateMutability": "view",
      "type": "function"
    },
    {
      "inputs": [],
      "name": "owner",
      "outputs": [
        {
          "internalType": "address",
          "name": "",
          "type": "address"
        }
      ],
      "stateMutability": "view",
      "type": "function"
    },
    {
      "inputs": [],
      "name": "renounceOwnership",
      "outputs": [],
      "stateMutability": "nonpayable",
      "type": "function"
    },
    {
      "inputs": [
        {
          "internalType": "address",
          "name": "newOwner",
          "type": "address"
        }
      ],
      "name": "transferOwnership",
      "outputs": [],
      "stateMutability": "nonpayable",
      "type": "function"
    },
    {
      "inputs": [],
      "name": "wrapperContract",
      "outputs": [
        {
          "internalType": "contract LIBWrapper",
          "name": "",
          "type": "address"
        }
      ],
      "stateMutability": "view",
      "type": "function"
    },
    {
      "stateMutability": "payable",
      "type": "receive"
    },
    {
      "inputs": [],
      "name": "withdrawLibraryBalance",
      "outputs": [],
      "stateMutability": "nonpayable",
      "type": "function"
    },
    {
      "inputs": [
        {
          "internalType": "uint256",
          "name": "_availableCopies",
          "type": "uint256"
        },
        {
          "internalType": "string",
          "name": "_name",
          "type": "string"
        }
      ],
      "name": "createBook",
      "outputs": [],
      "stateMutability": "nonpayable",
      "type": "function"
    },
    {
      "inputs": [
        {
          "internalType": "bytes32",
          "name": "_id",
          "type": "bytes32"
        }
      ],
      "name": "seeAllClientsByBookId",
      "outputs": [
        {
          "internalType": "address[]",
          "name": "",
          "type": "address[]"
        }
      ],
      "stateMutability": "view",
      "type": "function"
    },
    {
      "inputs": [
        {
          "internalType": "bytes32",
          "name": "_id",
          "type": "bytes32"
        }
      ],
      "name": "borrowBook",
      "outputs": [],
      "stateMutability": "payable",
      "type": "function"
    },
    {
      "inputs": [
        {
          "internalType": "bytes32",
          "name": "_id",
          "type": "bytes32"
        }
      ],
      "name": "returnBook",
      "outputs": [],
      "stateMutability": "nonpayable",
      "type": "function"
    },
    {
      "inputs": [],
      "name": "getAmount",
      "outputs": [
        {
          "internalType": "uint256",
          "name": "_amount",
          "type": "uint256"
        }
      ],
      "stateMutability": "view",
      "type": "function"
    },
    {
      "inputs": [],
      "name": "viewAllBooksCount",
      "outputs": [
        {
          "internalType": "uint256",
          "name": "",
          "type": "uint256"
        }
      ],
      "stateMutability": "view",
      "type": "function"
    }
  ],
  "bytecode": "0x608060405264e8d4a510006004556040516113b43803806113b48339818101604052604081101561002f57600080fd5b50805160209091015160006100426100ca565b600080546001600160a01b0319166001600160a01b0383169081178255604051929350917f8be0079c531659141344cd1fd0a4f28419497f9722a3daafe3b4186f6b6457e0908290a350600180546001600160a01b039384166001600160a01b03199182161790915560028054929093169181168217909255600380549092161790556100ce565b3390565b6112d7806100dd6000396000f3fe6080604052600436106100eb5760003560e01c80637b97b36d1161008a578063d321fe2911610059578063d321fe2914610419578063e2e8b9351461042e578063e33f0bc714610443578063f2fde38b146104bd5761015a565b80637b97b36d146103bd5780638da5cb5b146103d2578063adbb7f3f146103e7578063d25a4348146103fc5761015a565b80631a5a5bc1116100c65780631a5a5bc1146102815780631ba3192b146102bd578063715018a6146102ee57806374ca79f8146103035761015a565b8062cd3b621461015f5780630c0dee70146101ac57806312775c16146102555761015a565b3661015a57600260009054906101000a90046001600160a01b03166001600160a01b031663d46eb1196040518163ffffffff1660e01b8152600401600060405180830381600087803b15801561014057600080fd5b505af1158015610154573d6000803e3d6000fd5b50505050005b600080fd5b34801561016b57600080fd5b506101986004803603604081101561018257600080fd5b506001600160a01b0381351690602001356104f0565b604080519115158252519081900360200190f35b3480156101b857600080fd5b506101d6600480360360208110156101cf57600080fd5b5035610510565b6040518080602001838152602001828103825284818151815260200191508051906020019080838360005b83811015610219578181015183820152602001610201565b50505050905090810190601f1680156102465780820380516001836020036101000a031916815260200191505b50935050505060405180910390f35b34801561026157600080fd5b5061027f6004803603602081101561027857600080fd5b50356105b7565b005b34801561028d57600080fd5b506102ab600480360360208110156102a457600080fd5b5035610687565b60408051918252519081900360200190f35b3480156102c957600080fd5b506102d26106a8565b604080516001600160a01b039092168252519081900360200190f35b3480156102fa57600080fd5b5061027f6106b7565b34801561030f57600080fd5b5061027f6004803603604081101561032657600080fd5b8135919081019060408101602082013564010000000081111561034857600080fd5b82018360208201111561035a57600080fd5b8035906020019184600183028401116401000000008311171561037c57600080fd5b91908080601f016020809104026020016040519081016040528093929190818152602001838380828437600092019190915250929550610763945050505050565b3480156103c957600080fd5b506102ab6109b9565b3480156103de57600080fd5b506102d26109bf565b3480156103f357600080fd5b5061027f6109ce565b61027f6004803603602081101561041257600080fd5b5035610b96565b34801561042557600080fd5b506102ab610f23565b34801561043a57600080fd5b506102d2610f27565b34801561044f57600080fd5b5061046d6004803603602081101561046657600080fd5b5035610f36565b60408051602080825283518183015283519192839290830191858101910280838360005b838110156104a9578181015183820152602001610491565b505050509050019250505060405180910390f35b3480156104c957600080fd5b5061027f600480360360208110156104e057600080fd5b50356001600160a01b0316610fa5565b600760209081526000928352604080842090915290825290205460ff1681565b60066020908152600091825260409182902080548351601f600260001961010060018616150201909316929092049182018490048402810184019094528084529092918391908301828280156105a75780601f1061057c576101008083540402835291602001916105a7565b820191906000526020600020905b81548152906001019060200180831161058a57829003601f168201915b5050505050908060010154905082565b33600090815260076020908152604080832084845290915290205460ff16610616576040805162461bcd60e51b815260206004820152600d60248201526c4e6f7420626f72726f7765642160981b604482015290519081900360640190fd5b3360008181526007602090815260408083208584528252808320805460ff19169055600682529182902060019081018054909101905581518481529081019290925280517ff7e3cfd2f29d471df201a83cf2eb6b46ce10fa11fa384624d09a028fe39c78519281900390910190a150565b6005818154811061069757600080fd5b600091825260209091200154905081565b6001546001600160a01b031681565b6106bf6110a7565b6001600160a01b03166106d06109bf565b6001600160a01b031614610719576040805162461bcd60e51b81526020600482018190526024820152600080516020611282833981519152604482015290519081900360640190fd5b600080546040516001600160a01b03909116907f8be0079c531659141344cd1fd0a4f28419497f9722a3daafe3b4186f6b6457e0908390a3600080546001600160a01b0319169055565b61076b6110a7565b6001600160a01b031661077c6109bf565b6001600160a01b0316146107c5576040805162461bcd60e51b81526020600482018190526024820152600080516020611282833981519152604482015290519081900360640190fd5b8060006107d1826110ab565b60008181526006602052604090206001015490915015610838576040805162461bcd60e51b815260206004820152601b60248201527f54686973206e616d6520697320616c72656164792074616b656e210000000000604482015290519081900360640190fd5b60008411610885576040805162461bcd60e51b8152602060048201526015602482015274436f756e742073686f756c646e277420626520302160581b604482015290519081900360640190fd5b60008351116108c55760405162461bcd60e51b815260040180806020018281038252602281526020018061123a6022913960400191505060405180910390fd5b60606108cf611122565b604051806060016040528086815260200187815260200183815250905060006108f7866110ab565b6000818152600660209081526040909120845180519394508593919261092292849290910190611143565b5060208281015160018301556040830151805161094592600285019201906111cf565b5050600580546001810182556000919091527f036b6384b5eca791c62761152d0c79bb0604c104a5fb6f4eb0703f3154bb3db001829055506040805182815290517f7dcf5598577903357cfe9c463e1c0722a07f54a1fa42b734842405fb4d0adb2b9181900360200190a150505050505050565b60055490565b6000546001600160a01b031690565b6109d66110a7565b6001600160a01b03166109e76109bf565b6001600160a01b031614610a30576040805162461bcd60e51b81526020600482018190526024820152600080516020611282833981519152604482015290519081900360640190fd5b600154604080516370a0823160e01b815230600482015290516000926001600160a01b0316916370a08231916024808301926020929190829003018186803b158015610a7b57600080fd5b505afa158015610a8f573d6000803e3d6000fd5b505050506040513d6020811015610aa557600080fd5b50516001546003546040805163095ea7b360e01b81526001600160a01b03928316600482015260248101859052905193945091169163095ea7b3916044808201926020929091908290030181600087803b158015610b0257600080fd5b505af1158015610b16573d6000803e3d6000fd5b505050506040513d6020811015610b2c57600080fd5b505060025460408051636f074d1f60e11b81526004810184905290516001600160a01b039092169163de0e9a3e9160248082019260009290919082900301818387803b158015610b7b57600080fd5b505af1158015610b8f573d6000803e3d6000fd5b5050505050565b6000818152600660205260409020600101548190610bfb576040805162461bcd60e51b815260206004820152601a60248201527f5468697320626f6f6b2069736e277420617661696c61626c6521000000000000604482015290519081900360640190fd5b6004805460015460408051636eb1769f60e11b815233948101949094523060248501525191926001600160a01b039091169163dd62ed3e91604480820192602092909190829003018186803b158015610c5357600080fd5b505afa158015610c67573d6000803e3d6000fd5b505050506040513d6020811015610c7d57600080fd5b50511015610cd2576040805162461bcd60e51b815260206004820152601860248201527f546f6b656e20616c6c6f77616e636520746f6f206c6f77210000000000000000604482015290519081900360640190fd5b600154604080516370a0823160e01b815233600482015290516000926001600160a01b0316916370a08231916024808301926020929190829003018186803b158015610d1d57600080fd5b505afa158015610d31573d6000803e3d6000fd5b505050506040513d6020811015610d4757600080fd5b505111610d93576040805162461bcd60e51b8152602060048201526015602482015274557365722062616c616e636520746f6f206c6f772160581b604482015290519081900360640190fd5b33600090815260076020908152604080832085845290915290205460ff1615610df7576040805162461bcd60e51b8152602060048201526011602482015270416c726561647920626f72726f7765642160781b604482015290519081900360640190fd5b60015460048054604080516323b872dd60e01b815233938101939093523060248401526044830191909152516001600160a01b03909216916323b872dd916064808201926020929091908290030181600087803b158015610e5757600080fd5b505af1158015610e6b573d6000803e3d6000fd5b505050506040513d6020811015610e8157600080fd5b505060008281526006602081815260408084206001808201805460001901905533808752600785528387208988528552838720805460ff19168317905594845260029091018054918201815585529382902090930180546001600160a01b0319168317905582518581529081019190915281517f62aac2ddc5e94c48264d98066a7a1a34bef693b45b0e1077126bec45ee774354929181900390910190a15050565b4790565b6002546001600160a01b031681565b600081815260066020908152604091829020600201805483518184028101840190945280845260609392830182828015610f9957602002820191906000526020600020905b81546001600160a01b03168152600190910190602001808311610f7b575b50505050509050919050565b610fad6110a7565b6001600160a01b0316610fbe6109bf565b6001600160a01b031614611007576040805162461bcd60e51b81526020600482018190526024820152600080516020611282833981519152604482015290519081900360640190fd5b6001600160a01b03811661104c5760405162461bcd60e51b815260040180806020018281038252602681526020018061125c6026913960400191505060405180910390fd5b600080546040516001600160a01b03808516939216917f8be0079c531659141344cd1fd0a4f28419497f9722a3daafe3b4186f6b6457e091a3600080546001600160a01b0319166001600160a01b0392909216919091179055565b3390565b6000816040516020018082805190602001908083835b602083106110e05780518252601f1990920191602091820191016110c1565b6001836020036101000a038019825116818451168082178552505050505050905001915050604051602081830303815290604052805190602001209050919050565b60405180606001604052806060815260200160008152602001606081525090565b828054600181600116156101000203166002900490600052602060002090601f01602090048101928261117957600085556111bf565b82601f1061119257805160ff19168380011785556111bf565b828001600101855582156111bf579182015b828111156111bf5782518255916020019190600101906111a4565b506111cb929150611224565b5090565b8280548282559060005260206000209081019282156111bf579160200282015b828111156111bf57825182546001600160a01b0319166001600160a01b039091161782556020909201916001909101906111ef565b5b808211156111cb576000815560010161122556fe4e616d652073686f756c646e277420626520616e20656d70747920737472696e67214f776e61626c653a206e6577206f776e657220697320746865207a65726f20616464726573734f776e61626c653a2063616c6c6572206973206e6f7420746865206f776e6572a2646970667358221220a4fd891f47e1eac3243f012ca1f60cf90f28ae2a8bfa109da2eea0ca8e86db6364736f6c63430007050033",
  "source": "// SPDX-License-Identifier: UNLICENSED\npragma solidity 0.7.5;\n\nimport \"@openzeppelin/contracts/access/Ownable.sol\";\nimport \"@openzeppelin/contracts/token/ERC20/IERC20.sol\";\n\nimport \"./LIBWrapper.sol\";\n\ncontract Library is Ownable {\n    IERC20 public LIBToken; \n    LIBWrapper public wrapperContract;\n\n    address payable wrapperAddress;\n    uint borrowPrice = 1000000000000;\n\n    struct Book {\n        string name;\n        uint availableCopiesCount;\n        address[] clientAddresses;\n    }\n    \n    bytes32[] public allBookIDs;\n    \n    mapping (bytes32 => Book) public books;\n    mapping (address => mapping (bytes32 => bool)) public borrowedBooks;\n    \n    event LogAddedBook(bytes32 id);\n    event LIBBuy(address sender, uint amount);\n    event BookBorrowed(bytes32 id, address client);\n    event BookReturned(bytes32 id, address client);\n\n    constructor(address libTokenAddress, address payable libWrapperAddress) public payable {\n\t   LIBToken = IERC20(libTokenAddress);\n       wrapperContract = LIBWrapper(libWrapperAddress);\n       wrapperAddress = libWrapperAddress;\n    }\n\n    modifier bookExists(string memory _name) {\n        bytes32 id = callKeccak256(_name);\n        require(books[id].availableCopiesCount == 0, \"This name is already taken!\");\n        _;\n    }\n    \n    modifier isAvailable(bytes32 _id) {\n        require(books[_id].availableCopiesCount > 0, \"This book isn't available!\");\n        _;\n    }\n\n    receive() external payable {\n\t\twrapperContract.wrap();\n\t}\n\n    function withdrawLibraryBalance() public onlyOwner {\n        uint256 libraryBalance = LIBToken.balanceOf(address(this));\n        LIBToken.approve(wrapperAddress, libraryBalance);\n\n        wrapperContract.unwrap(libraryBalance);\n    }\n\n    function createBook(uint _availableCopies, string memory _name) public onlyOwner bookExists(_name) {\n        require(_availableCopies > 0, \"Count shouldn't be 0!\");\n        require(bytes(_name).length > 0, \"Name shouldn't be an empty string!\");\n        \n        address[] memory addresses;\n        Book memory book = Book(_name, _availableCopies, addresses);\n\n        bytes32 id = callKeccak256(_name);\n\n        books[id] = book;\n        allBookIDs.push(id);\n        \n        emit LogAddedBook(id);\n    }\n    \n    function seeAllClientsByBookId(bytes32 _id) public view returns(address[] memory) {\n        return books[_id].clientAddresses;\n    }\n\n    function borrowBook(bytes32 _id) public payable isAvailable(_id) {\n        require(LIBToken.allowance(msg.sender, address(this)) >= borrowPrice, \"Token allowance too low!\");\n        require(LIBToken.balanceOf(msg.sender) > 0, \"User balance too low!\");\n        require(!borrowedBooks[msg.sender][_id], \"Already borrowed!\");\n\n        LIBToken.transferFrom(msg.sender, address(this), borrowPrice);\n\n        books[_id].availableCopiesCount--;\n        \n        borrowedBooks[msg.sender][_id] = true;\n        books[_id].clientAddresses.push(msg.sender);\n        \n        emit BookBorrowed(_id, msg.sender);\n    }\n\n    function returnBook(bytes32 _id) public {\n        require(borrowedBooks[msg.sender][_id], \"Not borrowed!\");\n        \n        borrowedBooks[msg.sender][_id] = false;\n        books[_id].availableCopiesCount++;\n        \n        emit BookReturned(_id, msg.sender);\n    }\n\n    function getAmount() public view returns (uint _amount) {\n        return address(this).balance;\n    }\n    \n    function viewAllBooksCount() public view returns(uint) {\n        return allBookIDs.length;\n    }\n    \n    function callKeccak256(string memory _text) private pure returns(bytes32 result) {\n      return keccak256(abi.encodePacked(_text));\n    }\n}",
  "sourcePath": "/Users/milenaatanasova/Documents/onboarding/LimeChain-onboarding/Library/contracts/Library.sol",
  "compiler": {
    "name": "solc",
    "version": "0.7.5+commit.eb77ed08.Emscripten.clang",
    "optimizer": true,
    "runs": 200
  },
  "schemaVersion": "2.3.5",
  "updatedAt": "2021-05-07T08:16:36.782Z"
}