{
  "contractName": "Library",
  "abi": [
    {
      "anonymous": false,
      "inputs": [
        {
          "indexed": false,
          "internalType": "bytes32",
          "name": "id",
          "type": "bytes32"
        },
        {
          "indexed": false,
          "internalType": "address",
          "name": "client",
          "type": "address"
        }
      ],
      "name": "BookBorrowed",
      "type": "event"
    },
    {
      "anonymous": false,
      "inputs": [
        {
          "indexed": false,
          "internalType": "bytes32",
          "name": "id",
          "type": "bytes32"
        },
        {
          "indexed": false,
          "internalType": "address",
          "name": "client",
          "type": "address"
        }
      ],
      "name": "BookReturned",
      "type": "event"
    },
    {
      "anonymous": false,
      "inputs": [
        {
          "indexed": false,
          "internalType": "bytes32",
          "name": "id",
          "type": "bytes32"
        }
      ],
      "name": "LogAddedBook",
      "type": "event"
    },
    {
      "anonymous": false,
      "inputs": [
        {
          "indexed": true,
          "internalType": "address",
          "name": "previousOwner",
          "type": "address"
        },
        {
          "indexed": true,
          "internalType": "address",
          "name": "newOwner",
          "type": "address"
        }
      ],
      "name": "OwnershipTransferred",
      "type": "event"
    },
    {
      "inputs": [
        {
          "internalType": "uint256",
          "name": "",
          "type": "uint256"
        }
      ],
      "name": "allBookIDs",
      "outputs": [
        {
          "internalType": "bytes32",
          "name": "",
          "type": "bytes32"
        }
      ],
      "stateMutability": "view",
      "type": "function"
    },
    {
      "inputs": [
        {
          "internalType": "bytes32",
          "name": "",
          "type": "bytes32"
        }
      ],
      "name": "books",
      "outputs": [
        {
          "internalType": "string",
          "name": "name",
          "type": "string"
        },
        {
          "internalType": "uint256",
          "name": "availableCopiesCount",
          "type": "uint256"
        }
      ],
      "stateMutability": "view",
      "type": "function"
    },
    {
      "inputs": [
        {
          "internalType": "address",
          "name": "",
          "type": "address"
        },
        {
          "internalType": "bytes32",
          "name": "",
          "type": "bytes32"
        }
      ],
      "name": "borrowedBooks",
      "outputs": [
        {
          "internalType": "bool",
          "name": "",
          "type": "bool"
        }
      ],
      "stateMutability": "view",
      "type": "function"
    },
    {
      "inputs": [],
      "name": "owner",
      "outputs": [
        {
          "internalType": "address",
          "name": "",
          "type": "address"
        }
      ],
      "stateMutability": "view",
      "type": "function"
    },
    {
      "inputs": [],
      "name": "renounceOwnership",
      "outputs": [],
      "stateMutability": "nonpayable",
      "type": "function"
    },
    {
      "inputs": [
        {
          "internalType": "address",
          "name": "newOwner",
          "type": "address"
        }
      ],
      "name": "transferOwnership",
      "outputs": [],
      "stateMutability": "nonpayable",
      "type": "function"
    },
    {
      "inputs": [
        {
          "internalType": "uint256",
          "name": "_availableCopies",
          "type": "uint256"
        },
        {
          "internalType": "string",
          "name": "_name",
          "type": "string"
        }
      ],
      "name": "createBook",
      "outputs": [],
      "stateMutability": "nonpayable",
      "type": "function"
    },
    {
      "inputs": [
        {
          "internalType": "bytes32",
          "name": "_id",
          "type": "bytes32"
        }
      ],
      "name": "seeAllClientsByBookId",
      "outputs": [
        {
          "internalType": "address[]",
          "name": "",
          "type": "address[]"
        }
      ],
      "stateMutability": "view",
      "type": "function"
    },
    {
      "inputs": [
        {
          "internalType": "bytes32",
          "name": "_id",
          "type": "bytes32"
        }
      ],
      "name": "borrowBook",
      "outputs": [],
      "stateMutability": "nonpayable",
      "type": "function"
    },
    {
      "inputs": [
        {
          "internalType": "bytes32",
          "name": "_id",
          "type": "bytes32"
        }
      ],
      "name": "returnBook",
      "outputs": [],
      "stateMutability": "nonpayable",
      "type": "function"
    },
    {
      "inputs": [],
      "name": "viewAllBooksCount",
      "outputs": [
        {
          "internalType": "uint256",
          "name": "",
          "type": "uint256"
        }
      ],
      "stateMutability": "view",
      "type": "function"
    }
  ],
  "bytecode": "0x608060405234801561001057600080fd5b50600061001b61006a565b600080546001600160a01b0319166001600160a01b0383169081178255604051929350917f8be0079c531659141344cd1fd0a4f28419497f9722a3daafe3b4186f6b6457e0908290a35061006e565b3390565b610d4e8061007d6000396000f3fe608060405234801561001057600080fd5b50600436106100a85760003560e01c806374ca79f81161007157806374ca79f8146101df5780637b97b36d1461028c5780638da5cb5b14610294578063d25a4348146102b8578063e33f0bc7146102d5578063f2fde38b14610342576100a8565b8062cd3b62146100ad5780630c0dee70146100ed57806312775c16146101895780631a5a5bc1146101a8578063715018a6146101d7575b600080fd5b6100d9600480360360408110156100c357600080fd5b506001600160a01b038135169060200135610368565b604080519115158252519081900360200190f35b61010a6004803603602081101561010357600080fd5b5035610388565b6040518080602001838152602001828103825284818151815260200191508051906020019080838360005b8381101561014d578181015183820152602001610135565b50505050905090810190601f16801561017a5780820380516001836020036101000a031916815260200191505b50935050505060405180910390f35b6101a66004803603602081101561019f57600080fd5b5035610429565b005b6101c5600480360360208110156101be57600080fd5b50356104f9565b60408051918252519081900360200190f35b6101a661051a565b6101a6600480360360408110156101f557600080fd5b8135919081019060408101602082013564010000000081111561021757600080fd5b82018360208201111561022957600080fd5b8035906020019184600183028401116401000000008311171561024b57600080fd5b91908080601f0160208091040260200160405190810160405280939291908181526020018383808284376000920191909152509295506105d8945050505050565b6101c561083f565b61029c610845565b604080516001600160a01b039092168252519081900360200190f35b6101a6600480360360208110156102ce57600080fd5b5035610854565b6102f2600480360360208110156102eb57600080fd5b50356109bb565b60408051602080825283518183015283519192839290830191858101910280838360005b8381101561032e578181015183820152602001610316565b505050509050019250505060405180910390f35b6101a66004803603602081101561035857600080fd5b50356001600160a01b0316610a2a565b600360209081526000928352604080842090915290825290205460ff1681565b600260208181526000928352604092839020805484516001821615610100026000190190911693909304601f81018390048302840183019094528383529283918301828280156104195780601f106103ee57610100808354040283529160200191610419565b820191906000526020600020905b8154815290600101906020018083116103fc57829003601f168201915b5050505050908060010154905082565b33600090815260036020908152604080832084845290915290205460ff16610488576040805162461bcd60e51b815260206004820152600d60248201526c4e6f7420626f72726f7765642160981b604482015290519081900360640190fd5b3360008181526003602090815260408083208584528252808320805460ff19169055600282529182902060019081018054909101905581518481529081019290925280517ff7e3cfd2f29d471df201a83cf2eb6b46ce10fa11fa384624d09a028fe39c78519281900390910190a150565b6001818154811061050957600080fd5b600091825260209091200154905081565b610522610b3e565b6001600160a01b0316610533610845565b6001600160a01b03161461058e576040805162461bcd60e51b815260206004820181905260248201527f4f776e61626c653a2063616c6c6572206973206e6f7420746865206f776e6572604482015290519081900360640190fd5b600080546040516001600160a01b03909116907f8be0079c531659141344cd1fd0a4f28419497f9722a3daafe3b4186f6b6457e0908390a3600080546001600160a01b0319169055565b6105e0610b3e565b6001600160a01b03166105f1610845565b6001600160a01b03161461064c576040805162461bcd60e51b815260206004820181905260248201527f4f776e61626c653a2063616c6c6572206973206e6f7420746865206f776e6572604482015290519081900360640190fd5b80600061065882610b42565b600081815260026020526040902060010154909150156106bf576040805162461bcd60e51b815260206004820152601b60248201527f54686973206e616d6520697320616c72656164792074616b656e210000000000604482015290519081900360640190fd5b6000841161070c576040805162461bcd60e51b8152602060048201526015602482015274436f756e742073686f756c646e277420626520302160581b604482015290519081900360640190fd5b600083511161074c5760405162461bcd60e51b8152600401808060200182810382526022815260200180610cd16022913960400191505060405180910390fd5b6060610756610bb9565b6040518060600160405280868152602001878152602001838152509050600061077e86610b42565b600081815260026020908152604090912084518051939450859391926107a992849290910190610bda565b506020828101516001830155604083015180516107cc9260028501920190610c66565b50506001805480820182556000919091527fb10e2d527612073b26eecdfd717e6a320cf44b4afac2b0732d9fcbe2b7fa0cf601829055506040805182815290517f7dcf5598577903357cfe9c463e1c0722a07f54a1fa42b734842405fb4d0adb2b9181900360200190a150505050505050565b60015490565b6000546001600160a01b031690565b60008181526002602052604090206001015481906108b9576040805162461bcd60e51b815260206004820152601a60248201527f5468697320626f6f6b2069736e277420617661696c61626c6521000000000000604482015290519081900360640190fd5b33600090815260036020908152604080832085845290915290205460ff161561091d576040805162461bcd60e51b8152602060048201526011602482015270416c726561647920626f72726f7765642160781b604482015290519081900360640190fd5b60008281526002602081815260408084206001808201805460001901905533808752600385528387208988528552838720805460ff191683179055858552919094018054948501815585529382902090920180546001600160a01b0319168417905581518581529081019290925280517f62aac2ddc5e94c48264d98066a7a1a34bef693b45b0e1077126bec45ee7743549281900390910190a15050565b600081815260026020818152604092839020909101805483518184028101840190945280845260609392830182828015610a1e57602002820191906000526020600020905b81546001600160a01b03168152600190910190602001808311610a00575b50505050509050919050565b610a32610b3e565b6001600160a01b0316610a43610845565b6001600160a01b031614610a9e576040805162461bcd60e51b815260206004820181905260248201527f4f776e61626c653a2063616c6c6572206973206e6f7420746865206f776e6572604482015290519081900360640190fd5b6001600160a01b038116610ae35760405162461bcd60e51b8152600401808060200182810382526026815260200180610cf36026913960400191505060405180910390fd5b600080546040516001600160a01b03808516939216917f8be0079c531659141344cd1fd0a4f28419497f9722a3daafe3b4186f6b6457e091a3600080546001600160a01b0319166001600160a01b0392909216919091179055565b3390565b6000816040516020018082805190602001908083835b60208310610b775780518252601f199092019160209182019101610b58565b6001836020036101000a038019825116818451168082178552505050505050905001915050604051602081830303815290604052805190602001209050919050565b60405180606001604052806060815260200160008152602001606081525090565b828054600181600116156101000203166002900490600052602060002090601f016020900481019282610c105760008555610c56565b82601f10610c2957805160ff1916838001178555610c56565b82800160010185558215610c56579182015b82811115610c56578251825591602001919060010190610c3b565b50610c62929150610cbb565b5090565b828054828255906000526020600020908101928215610c56579160200282015b82811115610c5657825182546001600160a01b0319166001600160a01b03909116178255602090920191600190910190610c86565b5b80821115610c625760008155600101610cbc56fe4e616d652073686f756c646e277420626520616e20656d70747920737472696e67214f776e61626c653a206e6577206f776e657220697320746865207a65726f2061646472657373a264697066735822122022e21a22dd1a5557d721490b7dea91cb88f8c737fb015dde0b98b5e52ea72bd364736f6c63430007050033",
  "source": "// SPDX-License-Identifier: UNLICENSED\npragma solidity 0.7.5;\n\nimport \"@openzeppelin/contracts/access/Ownable.sol\";\n\ncontract Library is Ownable {\n    struct Book {\n        string name;\n        uint availableCopiesCount;\n        address[] clientAddresses;\n    }\n    \n    bytes32[] public allBookIDs;\n    \n    mapping (bytes32 => Book) public books;\n    mapping (address => mapping (bytes32 => bool)) public borrowedBooks;\n    \n    event LogAddedBook(bytes32 id);\n    event BookBorrowed(bytes32 id, address client);\n    event BookReturned(bytes32 id, address client);\n\n    modifier bookExists(string memory _name) {\n        bytes32 id = callKeccak256(_name);\n        require(books[id].availableCopiesCount == 0, \"This name is already taken!\");\n        _;\n    }\n    \n    modifier isAvailable(bytes32 _id) {\n        require(books[_id].availableCopiesCount > 0, \"This book isn't available!\");\n        _;\n    }\n\n    function createBook(uint _availableCopies, string memory _name) public onlyOwner bookExists(_name) {\n        require(_availableCopies > 0, \"Count shouldn't be 0!\");\n        require(bytes(_name).length > 0, \"Name shouldn't be an empty string!\");\n        \n        address[] memory addresses;\n        Book memory book = Book(_name, _availableCopies, addresses);\n\n        bytes32 id = callKeccak256(_name);\n\n        books[id] = book;\n        allBookIDs.push(id);\n        \n        emit LogAddedBook(id);\n    }\n    \n    function seeAllClientsByBookId(bytes32 _id) public view returns(address[] memory) {\n        return books[_id].clientAddresses;\n    }\n\n    function borrowBook(bytes32 _id) public isAvailable(_id) {\n        require(!borrowedBooks[msg.sender][_id], \"Already borrowed!\");\n\n        books[_id].availableCopiesCount--;\n        \n        borrowedBooks[msg.sender][_id] = true;\n        books[_id].clientAddresses.push(msg.sender);\n        \n        emit BookBorrowed(_id, msg.sender);\n    }\n\n    function returnBook(bytes32 _id) public {\n        require(borrowedBooks[msg.sender][_id], \"Not borrowed!\");\n        \n        borrowedBooks[msg.sender][_id] = false;\n        books[_id].availableCopiesCount++;\n        \n        emit BookReturned(_id, msg.sender);\n    }\n    \n    function viewAllBooksCount() public view returns(uint) {\n        return allBookIDs.length;\n    }\n    \n    function callKeccak256(string memory _text) private pure returns(bytes32 result) {\n      return keccak256(abi.encodePacked(_text));\n    }\n}",
  "sourcePath": "/Users/milenaatanasova/Documents/onboarding/LimeChain-onboarding/Library/contracts/Library.sol",
  "compiler": {
    "name": "solc",
    "version": "0.7.5+commit.eb77ed08.Emscripten.clang",
    "optimizer": true,
    "runs": 200
  },
  "schemaVersion": "2.3.5",
  "updatedAt": "2021-04-22T11:19:36.502Z"
}