{
  "contractName": "Library",
  "abi": [
    {
      "inputs": [
        {
          "internalType": "address",
          "name": "libTokenAddress",
          "type": "address"
        },
        {
          "internalType": "address payable",
          "name": "libWrapperAddress",
          "type": "address"
        }
      ],
      "stateMutability": "payable",
      "type": "constructor"
    },
    {
      "anonymous": false,
      "inputs": [
        {
          "indexed": false,
          "internalType": "bytes32",
          "name": "id",
          "type": "bytes32"
        },
        {
          "indexed": false,
          "internalType": "address",
          "name": "client",
          "type": "address"
        }
      ],
      "name": "BookBorrowed",
      "type": "event"
    },
    {
      "anonymous": false,
      "inputs": [
        {
          "indexed": false,
          "internalType": "bytes32",
          "name": "id",
          "type": "bytes32"
        },
        {
          "indexed": false,
          "internalType": "address",
          "name": "client",
          "type": "address"
        }
      ],
      "name": "BookReturned",
      "type": "event"
    },
    {
      "anonymous": false,
      "inputs": [
        {
          "indexed": false,
          "internalType": "address",
          "name": "sender",
          "type": "address"
        },
        {
          "indexed": false,
          "internalType": "uint256",
          "name": "amount",
          "type": "uint256"
        }
      ],
      "name": "LIBBuy",
      "type": "event"
    },
    {
      "anonymous": false,
      "inputs": [
        {
          "indexed": false,
          "internalType": "bytes32",
          "name": "id",
          "type": "bytes32"
        }
      ],
      "name": "LogAddedBook",
      "type": "event"
    },
    {
      "anonymous": false,
      "inputs": [
        {
          "indexed": true,
          "internalType": "address",
          "name": "previousOwner",
          "type": "address"
        },
        {
          "indexed": true,
          "internalType": "address",
          "name": "newOwner",
          "type": "address"
        }
      ],
      "name": "OwnershipTransferred",
      "type": "event"
    },
    {
      "inputs": [],
      "name": "LIBToken",
      "outputs": [
        {
          "internalType": "contract IERC20",
          "name": "",
          "type": "address"
        }
      ],
      "stateMutability": "view",
      "type": "function"
    },
    {
      "inputs": [
        {
          "internalType": "uint256",
          "name": "",
          "type": "uint256"
        }
      ],
      "name": "allBookIDs",
      "outputs": [
        {
          "internalType": "bytes32",
          "name": "",
          "type": "bytes32"
        }
      ],
      "stateMutability": "view",
      "type": "function"
    },
    {
      "inputs": [
        {
          "internalType": "bytes32",
          "name": "",
          "type": "bytes32"
        }
      ],
      "name": "books",
      "outputs": [
        {
          "internalType": "string",
          "name": "name",
          "type": "string"
        },
        {
          "internalType": "uint256",
          "name": "availableCopiesCount",
          "type": "uint256"
        }
      ],
      "stateMutability": "view",
      "type": "function"
    },
    {
      "inputs": [
        {
          "internalType": "address",
          "name": "",
          "type": "address"
        },
        {
          "internalType": "bytes32",
          "name": "",
          "type": "bytes32"
        }
      ],
      "name": "borrowedBooks",
      "outputs": [
        {
          "internalType": "bool",
          "name": "",
          "type": "bool"
        }
      ],
      "stateMutability": "view",
      "type": "function"
    },
    {
      "inputs": [],
      "name": "owner",
      "outputs": [
        {
          "internalType": "address",
          "name": "",
          "type": "address"
        }
      ],
      "stateMutability": "view",
      "type": "function"
    },
    {
      "inputs": [],
      "name": "renounceOwnership",
      "outputs": [],
      "stateMutability": "nonpayable",
      "type": "function"
    },
    {
      "inputs": [
        {
          "internalType": "address",
          "name": "newOwner",
          "type": "address"
        }
      ],
      "name": "transferOwnership",
      "outputs": [],
      "stateMutability": "nonpayable",
      "type": "function"
    },
    {
      "inputs": [],
      "name": "wrapperContract",
      "outputs": [
        {
          "internalType": "contract LIBWrapper",
          "name": "",
          "type": "address"
        }
      ],
      "stateMutability": "view",
      "type": "function"
    },
    {
      "stateMutability": "payable",
      "type": "receive"
    },
    {
      "inputs": [],
      "name": "wrapToken",
      "outputs": [],
      "stateMutability": "nonpayable",
      "type": "function"
    },
    {
      "inputs": [],
      "name": "withdrawLibraryBalance",
      "outputs": [],
      "stateMutability": "nonpayable",
      "type": "function"
    },
    {
      "inputs": [
        {
          "internalType": "uint256",
          "name": "_availableCopies",
          "type": "uint256"
        },
        {
          "internalType": "string",
          "name": "_name",
          "type": "string"
        }
      ],
      "name": "createBook",
      "outputs": [],
      "stateMutability": "nonpayable",
      "type": "function"
    },
    {
      "inputs": [
        {
          "internalType": "bytes32",
          "name": "_id",
          "type": "bytes32"
        }
      ],
      "name": "seeAllClientsByBookId",
      "outputs": [
        {
          "internalType": "address[]",
          "name": "",
          "type": "address[]"
        }
      ],
      "stateMutability": "view",
      "type": "function"
    },
    {
      "inputs": [
        {
          "internalType": "bytes32",
          "name": "_id",
          "type": "bytes32"
        }
      ],
      "name": "borrowBook",
      "outputs": [],
      "stateMutability": "payable",
      "type": "function"
    },
    {
      "inputs": [
        {
          "internalType": "bytes32",
          "name": "_id",
          "type": "bytes32"
        }
      ],
      "name": "returnBook",
      "outputs": [],
      "stateMutability": "nonpayable",
      "type": "function"
    },
    {
      "inputs": [],
      "name": "getAmount",
      "outputs": [
        {
          "internalType": "uint256",
          "name": "_amount",
          "type": "uint256"
        }
      ],
      "stateMutability": "view",
      "type": "function"
    },
    {
      "inputs": [],
      "name": "viewAllBooksCount",
      "outputs": [
        {
          "internalType": "uint256",
          "name": "",
          "type": "uint256"
        }
      ],
      "stateMutability": "view",
      "type": "function"
    }
  ],
  "bytecode": "0x608060405264e8d4a5100060045560405161143e38038061143e8339818101604052604081101561002f57600080fd5b50805160209091015160006100426100ca565b600080546001600160a01b0319166001600160a01b0383169081178255604051929350917f8be0079c531659141344cd1fd0a4f28419497f9722a3daafe3b4186f6b6457e0908290a350600180546001600160a01b039384166001600160a01b03199182161790915560028054929093169181168217909255600380549092161790556100ce565b3390565b611361806100dd6000396000f3fe6080604052600436106100f65760003560e01c80637b97b36d1161008a578063d321fe2911610059578063d321fe2914610439578063e2e8b9351461044e578063e33f0bc714610463578063f2fde38b146104dd57610165565b80637b97b36d146103dd5780638da5cb5b146103f2578063adbb7f3f14610407578063d25a43481461041c57610165565b80631ba3192b116100c65780631ba3192b146102c85780633517c604146102f9578063715018a61461030e57806374ca79f81461032357610165565b8062cd3b621461016a5780630c0dee70146101b757806312775c16146102605780631a5a5bc11461028c57610165565b3661016557600260009054906101000a90046001600160a01b03166001600160a01b031663d46eb1196040518163ffffffff1660e01b8152600401600060405180830381600087803b15801561014b57600080fd5b505af115801561015f573d6000803e3d6000fd5b50505050005b600080fd5b34801561017657600080fd5b506101a36004803603604081101561018d57600080fd5b506001600160a01b038135169060200135610510565b604080519115158252519081900360200190f35b3480156101c357600080fd5b506101e1600480360360208110156101da57600080fd5b5035610530565b6040518080602001838152602001828103825284818151815260200191508051906020019080838360005b8381101561022457818101518382015260200161020c565b50505050905090810190601f1680156102515780820380516001836020036101000a031916815260200191505b50935050505060405180910390f35b34801561026c57600080fd5b5061028a6004803603602081101561028357600080fd5b50356105d7565b005b34801561029857600080fd5b506102b6600480360360208110156102af57600080fd5b50356106a7565b60408051918252519081900360200190f35b3480156102d457600080fd5b506102dd6106c8565b604080516001600160a01b039092168252519081900360200190f35b34801561030557600080fd5b5061028a6106d7565b34801561031a57600080fd5b5061028a610741565b34801561032f57600080fd5b5061028a6004803603604081101561034657600080fd5b8135919081019060408101602082013564010000000081111561036857600080fd5b82018360208201111561037a57600080fd5b8035906020019184600183028401116401000000008311171561039c57600080fd5b91908080601f0160208091040260200160405190810160405280939291908181526020018383808284376000920191909152509295506107ed945050505050565b3480156103e957600080fd5b506102b6610a43565b3480156103fe57600080fd5b506102dd610a49565b34801561041357600080fd5b5061028a610a58565b61028a6004803603602081101561043257600080fd5b5035610c20565b34801561044557600080fd5b506102b6610fad565b34801561045a57600080fd5b506102dd610fb1565b34801561046f57600080fd5b5061048d6004803603602081101561048657600080fd5b5035610fc0565b60408051602080825283518183015283519192839290830191858101910280838360005b838110156104c95781810151838201526020016104b1565b505050509050019250505060405180910390f35b3480156104e957600080fd5b5061028a6004803603602081101561050057600080fd5b50356001600160a01b031661102f565b600760209081526000928352604080842090915290825290205460ff1681565b60066020908152600091825260409182902080548351601f600260001961010060018616150201909316929092049182018490048402810184019094528084529092918391908301828280156105c75780601f1061059c576101008083540402835291602001916105c7565b820191906000526020600020905b8154815290600101906020018083116105aa57829003601f168201915b5050505050908060010154905082565b33600090815260076020908152604080832084845290915290205460ff16610636576040805162461bcd60e51b815260206004820152600d60248201526c4e6f7420626f72726f7765642160981b604482015290519081900360640190fd5b3360008181526007602090815260408083208584528252808320805460ff19169055600682529182902060019081018054909101905581518481529081019290925280517ff7e3cfd2f29d471df201a83cf2eb6b46ce10fa11fa384624d09a028fe39c78519281900390910190a150565b600581815481106106b757600080fd5b600091825260209091200154905081565b6001546001600160a01b031681565b600260009054906101000a90046001600160a01b03166001600160a01b031663d46eb1196040518163ffffffff1660e01b8152600401600060405180830381600087803b15801561072757600080fd5b505af115801561073b573d6000803e3d6000fd5b50505050565b610749611131565b6001600160a01b031661075a610a49565b6001600160a01b0316146107a3576040805162461bcd60e51b8152602060048201819052602482015260008051602061130c833981519152604482015290519081900360640190fd5b600080546040516001600160a01b03909116907f8be0079c531659141344cd1fd0a4f28419497f9722a3daafe3b4186f6b6457e0908390a3600080546001600160a01b0319169055565b6107f5611131565b6001600160a01b0316610806610a49565b6001600160a01b03161461084f576040805162461bcd60e51b8152602060048201819052602482015260008051602061130c833981519152604482015290519081900360640190fd5b80600061085b82611135565b600081815260066020526040902060010154909150156108c2576040805162461bcd60e51b815260206004820152601b60248201527f54686973206e616d6520697320616c72656164792074616b656e210000000000604482015290519081900360640190fd5b6000841161090f576040805162461bcd60e51b8152602060048201526015602482015274436f756e742073686f756c646e277420626520302160581b604482015290519081900360640190fd5b600083511161094f5760405162461bcd60e51b81526004018080602001828103825260228152602001806112c46022913960400191505060405180910390fd5b60606109596111ac565b6040518060600160405280868152602001878152602001838152509050600061098186611135565b600081815260066020908152604090912084518051939450859391926109ac928492909101906111cd565b506020828101516001830155604083015180516109cf9260028501920190611259565b5050600580546001810182556000919091527f036b6384b5eca791c62761152d0c79bb0604c104a5fb6f4eb0703f3154bb3db001829055506040805182815290517f7dcf5598577903357cfe9c463e1c0722a07f54a1fa42b734842405fb4d0adb2b9181900360200190a150505050505050565b60055490565b6000546001600160a01b031690565b610a60611131565b6001600160a01b0316610a71610a49565b6001600160a01b031614610aba576040805162461bcd60e51b8152602060048201819052602482015260008051602061130c833981519152604482015290519081900360640190fd5b600154604080516370a0823160e01b815230600482015290516000926001600160a01b0316916370a08231916024808301926020929190829003018186803b158015610b0557600080fd5b505afa158015610b19573d6000803e3d6000fd5b505050506040513d6020811015610b2f57600080fd5b50516001546003546040805163095ea7b360e01b81526001600160a01b03928316600482015260248101859052905193945091169163095ea7b3916044808201926020929091908290030181600087803b158015610b8c57600080fd5b505af1158015610ba0573d6000803e3d6000fd5b505050506040513d6020811015610bb657600080fd5b505060025460408051636f074d1f60e11b81526004810184905290516001600160a01b039092169163de0e9a3e9160248082019260009290919082900301818387803b158015610c0557600080fd5b505af1158015610c19573d6000803e3d6000fd5b5050505050565b6000818152600660205260409020600101548190610c85576040805162461bcd60e51b815260206004820152601a60248201527f5468697320626f6f6b2069736e277420617661696c61626c6521000000000000604482015290519081900360640190fd5b6004805460015460408051636eb1769f60e11b815233948101949094523060248501525191926001600160a01b039091169163dd62ed3e91604480820192602092909190829003018186803b158015610cdd57600080fd5b505afa158015610cf1573d6000803e3d6000fd5b505050506040513d6020811015610d0757600080fd5b50511015610d5c576040805162461bcd60e51b815260206004820152601860248201527f546f6b656e20616c6c6f77616e636520746f6f206c6f77210000000000000000604482015290519081900360640190fd5b600154604080516370a0823160e01b815233600482015290516000926001600160a01b0316916370a08231916024808301926020929190829003018186803b158015610da757600080fd5b505afa158015610dbb573d6000803e3d6000fd5b505050506040513d6020811015610dd157600080fd5b505111610e1d576040805162461bcd60e51b8152602060048201526015602482015274557365722062616c616e636520746f6f206c6f772160581b604482015290519081900360640190fd5b33600090815260076020908152604080832085845290915290205460ff1615610e81576040805162461bcd60e51b8152602060048201526011602482015270416c726561647920626f72726f7765642160781b604482015290519081900360640190fd5b60015460048054604080516323b872dd60e01b815233938101939093523060248401526044830191909152516001600160a01b03909216916323b872dd916064808201926020929091908290030181600087803b158015610ee157600080fd5b505af1158015610ef5573d6000803e3d6000fd5b505050506040513d6020811015610f0b57600080fd5b505060008281526006602081815260408084206001808201805460001901905533808752600785528387208988528552838720805460ff19168317905594845260029091018054918201815585529382902090930180546001600160a01b0319168317905582518581529081019190915281517f62aac2ddc5e94c48264d98066a7a1a34bef693b45b0e1077126bec45ee774354929181900390910190a15050565b4790565b6002546001600160a01b031681565b60008181526006602090815260409182902060020180548351818402810184019094528084526060939283018282801561102357602002820191906000526020600020905b81546001600160a01b03168152600190910190602001808311611005575b50505050509050919050565b611037611131565b6001600160a01b0316611048610a49565b6001600160a01b031614611091576040805162461bcd60e51b8152602060048201819052602482015260008051602061130c833981519152604482015290519081900360640190fd5b6001600160a01b0381166110d65760405162461bcd60e51b81526004018080602001828103825260268152602001806112e66026913960400191505060405180910390fd5b600080546040516001600160a01b03808516939216917f8be0079c531659141344cd1fd0a4f28419497f9722a3daafe3b4186f6b6457e091a3600080546001600160a01b0319166001600160a01b0392909216919091179055565b3390565b6000816040516020018082805190602001908083835b6020831061116a5780518252601f19909201916020918201910161114b565b6001836020036101000a038019825116818451168082178552505050505050905001915050604051602081830303815290604052805190602001209050919050565b60405180606001604052806060815260200160008152602001606081525090565b828054600181600116156101000203166002900490600052602060002090601f0160209004810192826112035760008555611249565b82601f1061121c57805160ff1916838001178555611249565b82800160010185558215611249579182015b8281111561124957825182559160200191906001019061122e565b506112559291506112ae565b5090565b828054828255906000526020600020908101928215611249579160200282015b8281111561124957825182546001600160a01b0319166001600160a01b03909116178255602090920191600190910190611279565b5b8082111561125557600081556001016112af56fe4e616d652073686f756c646e277420626520616e20656d70747920737472696e67214f776e61626c653a206e6577206f776e657220697320746865207a65726f20616464726573734f776e61626c653a2063616c6c6572206973206e6f7420746865206f776e6572a2646970667358221220b6eefe10c19592322f7200b7b2ab06c48dffe767233538dd18325136a373560864736f6c63430007050033",
  "source": "// SPDX-License-Identifier: UNLICENSED\npragma solidity 0.7.5;\n\nimport \"@openzeppelin/contracts/access/Ownable.sol\";\nimport \"@openzeppelin/contracts/token/ERC20/IERC20.sol\";\n\nimport \"./LIBWrapper.sol\";\n\ncontract Library is Ownable {\n    IERC20 public LIBToken; \n    LIBWrapper public wrapperContract;\n\n    address payable wrapperAddress;\n    uint borrowPrice = 1000000000000;\n\n    struct Book {\n        string name;\n        uint availableCopiesCount;\n        address[] clientAddresses;\n    }\n    \n    bytes32[] public allBookIDs;\n    \n    mapping (bytes32 => Book) public books;\n    mapping (address => mapping (bytes32 => bool)) public borrowedBooks;\n    \n    event LogAddedBook(bytes32 id);\n    event LIBBuy(address sender, uint amount);\n    event BookBorrowed(bytes32 id, address client);\n    event BookReturned(bytes32 id, address client);\n\n    constructor(address libTokenAddress, address payable libWrapperAddress) public payable {\n\t   LIBToken = IERC20(libTokenAddress);\n       wrapperContract = LIBWrapper(libWrapperAddress);\n       wrapperAddress = libWrapperAddress;\n    }\n\n    modifier bookExists(string memory _name) {\n        bytes32 id = callKeccak256(_name);\n        require(books[id].availableCopiesCount == 0, \"This name is already taken!\");\n        _;\n    }\n    \n    modifier isAvailable(bytes32 _id) {\n        require(books[_id].availableCopiesCount > 0, \"This book isn't available!\");\n        _;\n    }\n\n    receive() external payable {\n\t\twrapperContract.wrap();\n\t}\n\n    function wrapToken() public {\n        wrapperContract.wrap();\n    }\n\n    function withdrawLibraryBalance() public onlyOwner {\n        uint256 libraryBalance = LIBToken.balanceOf(address(this));\n        LIBToken.approve(wrapperAddress, libraryBalance);\n\n        wrapperContract.unwrap(libraryBalance);\n    }\n\n    function createBook(uint _availableCopies, string memory _name) public onlyOwner bookExists(_name) {\n        require(_availableCopies > 0, \"Count shouldn't be 0!\");\n        require(bytes(_name).length > 0, \"Name shouldn't be an empty string!\");\n        \n        address[] memory addresses;\n        Book memory book = Book(_name, _availableCopies, addresses);\n\n        bytes32 id = callKeccak256(_name);\n\n        books[id] = book;\n        allBookIDs.push(id);\n        \n        emit LogAddedBook(id);\n    }\n    \n    function seeAllClientsByBookId(bytes32 _id) public view returns(address[] memory) {\n        return books[_id].clientAddresses;\n    }\n\n    function borrowBook(bytes32 _id) public payable isAvailable(_id) {\n        require(LIBToken.allowance(msg.sender, address(this)) >= borrowPrice, \"Token allowance too low!\");\n        require(LIBToken.balanceOf(msg.sender) > 0, \"User balance too low!\");\n        require(!borrowedBooks[msg.sender][_id], \"Already borrowed!\");\n\n        LIBToken.transferFrom(msg.sender, address(this), borrowPrice);\n\n        books[_id].availableCopiesCount--;\n        \n        borrowedBooks[msg.sender][_id] = true;\n        books[_id].clientAddresses.push(msg.sender);\n        \n        emit BookBorrowed(_id, msg.sender);\n    }\n\n    function returnBook(bytes32 _id) public {\n        require(borrowedBooks[msg.sender][_id], \"Not borrowed!\");\n        \n        borrowedBooks[msg.sender][_id] = false;\n        books[_id].availableCopiesCount++;\n        \n        emit BookReturned(_id, msg.sender);\n    }\n\n    function getAmount() public view returns (uint _amount) {\n        return address(this).balance;\n    }\n    \n    function viewAllBooksCount() public view returns(uint) {\n        return allBookIDs.length;\n    }\n    \n    function callKeccak256(string memory _text) private pure returns(bytes32 result) {\n      return keccak256(abi.encodePacked(_text));\n    }\n}",
  "sourcePath": "/Users/milenaatanasova/Documents/onboarding/LimeChain-onboarding/Library/contracts/Library.sol",
  "compiler": {
    "name": "solc",
    "version": "0.7.5+commit.eb77ed08.Emscripten.clang",
    "optimizer": true,
    "runs": 200
  },
  "schemaVersion": "2.3.5",
  "updatedAt": "2021-05-07T07:45:36.495Z"
}