{
  "contractName": "Library",
  "abi": [
    {
      "inputs": [
        {
          "internalType": "address",
          "name": "libTokenAddress",
          "type": "address"
        },
        {
          "internalType": "address payable",
          "name": "libWrapperAddress",
          "type": "address"
        }
      ],
      "stateMutability": "payable",
      "type": "constructor"
    },
    {
      "anonymous": false,
      "inputs": [
        {
          "indexed": false,
          "internalType": "bytes32",
          "name": "id",
          "type": "bytes32"
        },
        {
          "indexed": false,
          "internalType": "address",
          "name": "client",
          "type": "address"
        }
      ],
      "name": "BookBorrowed",
      "type": "event"
    },
    {
      "anonymous": false,
      "inputs": [
        {
          "indexed": false,
          "internalType": "bytes32",
          "name": "id",
          "type": "bytes32"
        },
        {
          "indexed": false,
          "internalType": "address",
          "name": "client",
          "type": "address"
        }
      ],
      "name": "BookReturned",
      "type": "event"
    },
    {
      "anonymous": false,
      "inputs": [
        {
          "indexed": false,
          "internalType": "uint256",
          "name": "currentBalance",
          "type": "uint256"
        }
      ],
      "name": "LIBBalance",
      "type": "event"
    },
    {
      "anonymous": false,
      "inputs": [
        {
          "indexed": false,
          "internalType": "address",
          "name": "sender",
          "type": "address"
        },
        {
          "indexed": false,
          "internalType": "uint256",
          "name": "amount",
          "type": "uint256"
        }
      ],
      "name": "LIBBuy",
      "type": "event"
    },
    {
      "anonymous": false,
      "inputs": [
        {
          "indexed": false,
          "internalType": "bytes32",
          "name": "id",
          "type": "bytes32"
        }
      ],
      "name": "LogAddedBook",
      "type": "event"
    },
    {
      "anonymous": false,
      "inputs": [
        {
          "indexed": true,
          "internalType": "address",
          "name": "previousOwner",
          "type": "address"
        },
        {
          "indexed": true,
          "internalType": "address",
          "name": "newOwner",
          "type": "address"
        }
      ],
      "name": "OwnershipTransferred",
      "type": "event"
    },
    {
      "inputs": [],
      "name": "LIBToken",
      "outputs": [
        {
          "internalType": "contract IERC20",
          "name": "",
          "type": "address"
        }
      ],
      "stateMutability": "view",
      "type": "function"
    },
    {
      "inputs": [
        {
          "internalType": "uint256",
          "name": "",
          "type": "uint256"
        }
      ],
      "name": "allBookIDs",
      "outputs": [
        {
          "internalType": "bytes32",
          "name": "",
          "type": "bytes32"
        }
      ],
      "stateMutability": "view",
      "type": "function"
    },
    {
      "inputs": [
        {
          "internalType": "bytes32",
          "name": "",
          "type": "bytes32"
        }
      ],
      "name": "books",
      "outputs": [
        {
          "internalType": "string",
          "name": "name",
          "type": "string"
        },
        {
          "internalType": "uint256",
          "name": "availableCopiesCount",
          "type": "uint256"
        }
      ],
      "stateMutability": "view",
      "type": "function"
    },
    {
      "inputs": [
        {
          "internalType": "address",
          "name": "",
          "type": "address"
        },
        {
          "internalType": "bytes32",
          "name": "",
          "type": "bytes32"
        }
      ],
      "name": "borrowedBooks",
      "outputs": [
        {
          "internalType": "bool",
          "name": "",
          "type": "bool"
        }
      ],
      "stateMutability": "view",
      "type": "function"
    },
    {
      "inputs": [],
      "name": "owner",
      "outputs": [
        {
          "internalType": "address",
          "name": "",
          "type": "address"
        }
      ],
      "stateMutability": "view",
      "type": "function"
    },
    {
      "inputs": [],
      "name": "renounceOwnership",
      "outputs": [],
      "stateMutability": "nonpayable",
      "type": "function"
    },
    {
      "inputs": [
        {
          "internalType": "address",
          "name": "newOwner",
          "type": "address"
        }
      ],
      "name": "transferOwnership",
      "outputs": [],
      "stateMutability": "nonpayable",
      "type": "function"
    },
    {
      "inputs": [],
      "name": "wrapperContract",
      "outputs": [
        {
          "internalType": "contract LIBWrapper",
          "name": "",
          "type": "address"
        }
      ],
      "stateMutability": "view",
      "type": "function"
    },
    {
      "inputs": [],
      "name": "wrapToken",
      "outputs": [],
      "stateMutability": "nonpayable",
      "type": "function"
    },
    {
      "inputs": [],
      "name": "unwrapToken",
      "outputs": [],
      "stateMutability": "nonpayable",
      "type": "function"
    },
    {
      "inputs": [
        {
          "internalType": "uint256",
          "name": "_availableCopies",
          "type": "uint256"
        },
        {
          "internalType": "string",
          "name": "_name",
          "type": "string"
        }
      ],
      "name": "createBook",
      "outputs": [],
      "stateMutability": "nonpayable",
      "type": "function"
    },
    {
      "inputs": [
        {
          "internalType": "bytes32",
          "name": "_id",
          "type": "bytes32"
        }
      ],
      "name": "seeAllClientsByBookId",
      "outputs": [
        {
          "internalType": "address[]",
          "name": "",
          "type": "address[]"
        }
      ],
      "stateMutability": "view",
      "type": "function"
    },
    {
      "inputs": [
        {
          "internalType": "bytes32",
          "name": "_id",
          "type": "bytes32"
        }
      ],
      "name": "borrowBook",
      "outputs": [],
      "stateMutability": "payable",
      "type": "function"
    },
    {
      "inputs": [
        {
          "internalType": "bytes32",
          "name": "_id",
          "type": "bytes32"
        }
      ],
      "name": "returnBook",
      "outputs": [],
      "stateMutability": "nonpayable",
      "type": "function"
    },
    {
      "inputs": [],
      "name": "getCurrentBalance",
      "outputs": [],
      "stateMutability": "nonpayable",
      "type": "function"
    },
    {
      "inputs": [],
      "name": "viewAllBooksCount",
      "outputs": [
        {
          "internalType": "uint256",
          "name": "",
          "type": "uint256"
        }
      ],
      "stateMutability": "view",
      "type": "function"
    }
  ],
  "bytecode": "0x6080604052678ac7230489e80000600355604051611cdd380380611cdd8339818101604052604081101561003257600080fd5b810190808051906020019092919080519060200190929190505050600061005d61018460201b60201c565b9050806000806101000a81548173ffffffffffffffffffffffffffffffffffffffff021916908373ffffffffffffffffffffffffffffffffffffffff1602179055508073ffffffffffffffffffffffffffffffffffffffff16600073ffffffffffffffffffffffffffffffffffffffff167f8be0079c531659141344cd1fd0a4f28419497f9722a3daafe3b4186f6b6457e060405160405180910390a35081600160006101000a81548173ffffffffffffffffffffffffffffffffffffffff021916908373ffffffffffffffffffffffffffffffffffffffff16021790555080600260006101000a81548173ffffffffffffffffffffffffffffffffffffffff021916908373ffffffffffffffffffffffffffffffffffffffff160217905550505061018c565b600033905090565b611b428061019b6000396000f3fe6080604052600436106100f25760003560e01c80637b97b36d1161008a578063d25a434811610059578063d25a434814610488578063e2e8b935146104b6578063e33f0bc7146104f7578063f2fde38b14610587576100f2565b80637b97b36d146103ee5780638da5cb5b14610419578063a57497101461045a578063bdba8faf14610471576100f2565b80631ba3192b116100c65780631ba3192b146102ad5780633517c604146102ee578063715018a61461030557806374ca79f81461031c576100f2565b8062cd3b62146100f75780630c0dee701461016857806312775c16146102235780631a5a5bc11461025e575b600080fd5b34801561010357600080fd5b506101506004803603604081101561011a57600080fd5b81019080803573ffffffffffffffffffffffffffffffffffffffff169060200190929190803590602001909291905050506105d8565b60405180821515815260200191505060405180910390f35b34801561017457600080fd5b506101a16004803603602081101561018b57600080fd5b8101908080359060200190929190505050610607565b6040518080602001838152602001828103825284818151815260200191508051906020019080838360005b838110156101e75780820151818401526020810190506101cc565b50505050905090810190601f1680156102145780820380516001836020036101000a031916815260200191505b50935050505060405180910390f35b34801561022f57600080fd5b5061025c6004803603602081101561024657600080fd5b81019080803590602001909291905050506106c3565b005b34801561026a57600080fd5b506102976004803603602081101561028157600080fd5b810190808035906020019092919050505061087a565b6040518082815260200191505060405180910390f35b3480156102b957600080fd5b506102c261089e565b604051808273ffffffffffffffffffffffffffffffffffffffff16815260200191505060405180910390f35b3480156102fa57600080fd5b506103036108c4565b005b34801561031157600080fd5b5061031a610948565b005b34801561032857600080fd5b506103ec6004803603604081101561033f57600080fd5b81019080803590602001909291908035906020019064010000000081111561036657600080fd5b82018360208201111561037857600080fd5b8035906020019184600183028401116401000000008311171561039a57600080fd5b91908080601f016020809104026020016040519081016040528093929190818152602001838380828437600081840152601f19601f820116905080830192505050505050509192919290505050610ab5565b005b3480156103fa57600080fd5b50610403610dc6565b6040518082815260200191505060405180910390f35b34801561042557600080fd5b5061042e610dd3565b604051808273ffffffffffffffffffffffffffffffffffffffff16815260200191505060405180910390f35b34801561046657600080fd5b5061046f610dfc565b005b34801561047d57600080fd5b50610486610efe565b005b6104b46004803603602081101561049e57600080fd5b8101908080359060200190929190505050611129565b005b3480156104c257600080fd5b506104cb61162f565b604051808273ffffffffffffffffffffffffffffffffffffffff16815260200191505060405180910390f35b34801561050357600080fd5b506105306004803603602081101561051a57600080fd5b8101908080359060200190929190505050611655565b6040518080602001828103825283818151815260200191508051906020019060200280838360005b83811015610573578082015181840152602081019050610558565b505050509050019250505060405180910390f35b34801561059357600080fd5b506105d6600480360360208110156105aa57600080fd5b81019080803573ffffffffffffffffffffffffffffffffffffffff1690602001909291905050506116f9565b005b60066020528160005260406000206020528060005260406000206000915091509054906101000a900460ff1681565b6005602052806000526040600020600091509050806000018054600181600116156101000203166002900480601f0160208091040260200160405190810160405280929190818152602001828054600181600116156101000203166002900480156106b35780601f10610688576101008083540402835291602001916106b3565b820191906000526020600020905b81548152906001019060200180831161069657829003601f168201915b5050505050908060010154905082565b600660003373ffffffffffffffffffffffffffffffffffffffff1673ffffffffffffffffffffffffffffffffffffffff168152602001908152602001600020600082815260200190815260200160002060009054906101000a900460ff16610793576040517f08c379a000000000000000000000000000000000000000000000000000000000815260040180806020018281038252600d8152602001807f4e6f7420626f72726f776564210000000000000000000000000000000000000081525060200191505060405180910390fd5b6000600660003373ffffffffffffffffffffffffffffffffffffffff1673ffffffffffffffffffffffffffffffffffffffff168152602001908152602001600020600083815260200190815260200160002060006101000a81548160ff02191690831515021790555060056000828152602001908152602001600020600101600081548092919060010191905055507ff7e3cfd2f29d471df201a83cf2eb6b46ce10fa11fa384624d09a028fe39c78518133604051808381526020018273ffffffffffffffffffffffffffffffffffffffff1681526020019250505060405180910390a150565b6004818154811061088a57600080fd5b906000526020600020016000915090505481565b600160009054906101000a900473ffffffffffffffffffffffffffffffffffffffff1681565b600260009054906101000a900473ffffffffffffffffffffffffffffffffffffffff1673ffffffffffffffffffffffffffffffffffffffff1663d46eb1196040518163ffffffff1660e01b8152600401600060405180830381600087803b15801561092e57600080fd5b505af1158015610942573d6000803e3d6000fd5b50505050565b6109506118eb565b73ffffffffffffffffffffffffffffffffffffffff1661096e610dd3565b73ffffffffffffffffffffffffffffffffffffffff16146109f7576040517f08c379a00000000000000000000000000000000000000000000000000000000081526004018080602001828103825260208152602001807f4f776e61626c653a2063616c6c6572206973206e6f7420746865206f776e657281525060200191505060405180910390fd5b600073ffffffffffffffffffffffffffffffffffffffff1660008054906101000a900473ffffffffffffffffffffffffffffffffffffffff1673ffffffffffffffffffffffffffffffffffffffff167f8be0079c531659141344cd1fd0a4f28419497f9722a3daafe3b4186f6b6457e060405160405180910390a360008060006101000a81548173ffffffffffffffffffffffffffffffffffffffff021916908373ffffffffffffffffffffffffffffffffffffffff160217905550565b610abd6118eb565b73ffffffffffffffffffffffffffffffffffffffff16610adb610dd3565b73ffffffffffffffffffffffffffffffffffffffff1614610b64576040517f08c379a00000000000000000000000000000000000000000000000000000000081526004018080602001828103825260208152602001807f4f776e61626c653a2063616c6c6572206973206e6f7420746865206f776e657281525060200191505060405180910390fd5b806000610b70826118f3565b90506000600560008381526020019081526020016000206001015414610bfe576040517f08c379a000000000000000000000000000000000000000000000000000000000815260040180806020018281038252601b8152602001807f54686973206e616d6520697320616c72656164792074616b656e21000000000081525060200191505060405180910390fd5b60008411610c74576040517f08c379a00000000000000000000000000000000000000000000000000000000081526004018080602001828103825260158152602001807f436f756e742073686f756c646e2774206265203021000000000000000000000081525060200191505060405180910390fd5b6000835111610cce576040517f08c379a0000000000000000000000000000000000000000000000000000000008152600401808060200182810382526022815260200180611ac56022913960400191505060405180910390fd5b6060610cd861196e565b60405180606001604052808681526020018781526020018381525090506000610d00866118f3565b905081600560008381526020019081526020016000206000820151816000019080519060200190610d3292919061198f565b50602082015181600101556040820151816002019080519060200190610d59929190611a1d565b5090505060048190806001815401808255809150506001900390600052602060002001600090919091909150557f7dcf5598577903357cfe9c463e1c0722a07f54a1fa42b734842405fb4d0adb2b816040518082815260200191505060405180910390a150505050505050565b6000600480549050905090565b60008060009054906101000a900473ffffffffffffffffffffffffffffffffffffffff16905090565b6000600160009054906101000a900473ffffffffffffffffffffffffffffffffffffffff1673ffffffffffffffffffffffffffffffffffffffff166370a08231336040518263ffffffff1660e01b8152600401808273ffffffffffffffffffffffffffffffffffffffff16815260200191505060206040518083038186803b158015610e8757600080fd5b505afa158015610e9b573d6000803e3d6000fd5b505050506040513d6020811015610eb157600080fd5b810190808051906020019092919050505090507fe93941da36bfb7273a1523cfee9d29bcadb6ce75d161c0b13de35d96212db511816040518082815260200191505060405180910390a150565b610f066118eb565b73ffffffffffffffffffffffffffffffffffffffff16610f24610dd3565b73ffffffffffffffffffffffffffffffffffffffff1614610fad576040517f08c379a00000000000000000000000000000000000000000000000000000000081526004018080602001828103825260208152602001807f4f776e61626c653a2063616c6c6572206973206e6f7420746865206f776e657281525060200191505060405180910390fd5b600073d9995bae12fee327256ffec1e3184d492bd94c319050600160009054906101000a900473ffffffffffffffffffffffffffffffffffffffff1673ffffffffffffffffffffffffffffffffffffffff1663095ea7b3826003546040518363ffffffff1660e01b8152600401808373ffffffffffffffffffffffffffffffffffffffff16815260200182815260200192505050602060405180830381600087803b15801561105b57600080fd5b505af115801561106f573d6000803e3d6000fd5b505050506040513d602081101561108557600080fd5b810190808051906020019092919050505050600260009054906101000a900473ffffffffffffffffffffffffffffffffffffffff1673ffffffffffffffffffffffffffffffffffffffff1663de0e9a3e6003546040518263ffffffff1660e01b815260040180828152602001915050600060405180830381600087803b15801561110e57600080fd5b505af1158015611122573d6000803e3d6000fd5b5050505050565b8060006005600083815260200190815260200160002060010154116111b6576040517f08c379a000000000000000000000000000000000000000000000000000000000815260040180806020018281038252601a8152602001807f5468697320626f6f6b2069736e277420617661696c61626c652100000000000081525060200191505060405180910390fd5b600354600160009054906101000a900473ffffffffffffffffffffffffffffffffffffffff1673ffffffffffffffffffffffffffffffffffffffff1663dd62ed3e33306040518363ffffffff1660e01b8152600401808373ffffffffffffffffffffffffffffffffffffffff1681526020018273ffffffffffffffffffffffffffffffffffffffff1681526020019250505060206040518083038186803b15801561126057600080fd5b505afa158015611274573d6000803e3d6000fd5b505050506040513d602081101561128a57600080fd5b8101908080519060200190929190505050101561130f576040517f08c379a00000000000000000000000000000000000000000000000000000000081526004018080602001828103825260188152602001807f546f6b656e20616c6c6f77616e636520746f6f206c6f7721000000000000000081525060200191505060405180910390fd5b600660003373ffffffffffffffffffffffffffffffffffffffff1673ffffffffffffffffffffffffffffffffffffffff168152602001908152602001600020600083815260200190815260200160002060009054906101000a900460ff16156113e0576040517f08c379a00000000000000000000000000000000000000000000000000000000081526004018080602001828103825260118152602001807f416c726561647920626f72726f7765642100000000000000000000000000000081525060200191505060405180910390fd5b600160009054906101000a900473ffffffffffffffffffffffffffffffffffffffff1673ffffffffffffffffffffffffffffffffffffffff166323b872dd33306003546040518463ffffffff1660e01b8152600401808473ffffffffffffffffffffffffffffffffffffffff1681526020018373ffffffffffffffffffffffffffffffffffffffff1681526020018281526020019350505050602060405180830381600087803b15801561149357600080fd5b505af11580156114a7573d6000803e3d6000fd5b505050506040513d60208110156114bd57600080fd5b8101908080519060200190929190505050506005600083815260200190815260200160002060010160008154809291906001900391905055506001600660003373ffffffffffffffffffffffffffffffffffffffff1673ffffffffffffffffffffffffffffffffffffffff168152602001908152602001600020600084815260200190815260200160002060006101000a81548160ff02191690831515021790555060056000838152602001908152602001600020600201339080600181540180825580915050600190039060005260206000200160009091909190916101000a81548173ffffffffffffffffffffffffffffffffffffffff021916908373ffffffffffffffffffffffffffffffffffffffff1602179055507f62aac2ddc5e94c48264d98066a7a1a34bef693b45b0e1077126bec45ee7743548233604051808381526020018273ffffffffffffffffffffffffffffffffffffffff1681526020019250505060405180910390a15050565b600260009054906101000a900473ffffffffffffffffffffffffffffffffffffffff1681565b6060600560008381526020019081526020016000206002018054806020026020016040519081016040528092919081815260200182805480156116ed57602002820191906000526020600020905b8160009054906101000a900473ffffffffffffffffffffffffffffffffffffffff1673ffffffffffffffffffffffffffffffffffffffff16815260200190600101908083116116a3575b50505050509050919050565b6117016118eb565b73ffffffffffffffffffffffffffffffffffffffff1661171f610dd3565b73ffffffffffffffffffffffffffffffffffffffff16146117a8576040517f08c379a00000000000000000000000000000000000000000000000000000000081526004018080602001828103825260208152602001807f4f776e61626c653a2063616c6c6572206973206e6f7420746865206f776e657281525060200191505060405180910390fd5b600073ffffffffffffffffffffffffffffffffffffffff168173ffffffffffffffffffffffffffffffffffffffff16141561182e576040517f08c379a0000000000000000000000000000000000000000000000000000000008152600401808060200182810382526026815260200180611ae76026913960400191505060405180910390fd5b8073ffffffffffffffffffffffffffffffffffffffff1660008054906101000a900473ffffffffffffffffffffffffffffffffffffffff1673ffffffffffffffffffffffffffffffffffffffff167f8be0079c531659141344cd1fd0a4f28419497f9722a3daafe3b4186f6b6457e060405160405180910390a3806000806101000a81548173ffffffffffffffffffffffffffffffffffffffff021916908373ffffffffffffffffffffffffffffffffffffffff16021790555050565b600033905090565b6000816040516020018082805190602001908083835b6020831061192c5780518252602082019150602081019050602083039250611909565b6001836020036101000a038019825116818451168082178552505050505050905001915050604051602081830303815290604052805190602001209050919050565b60405180606001604052806060815260200160008152602001606081525090565b828054600181600116156101000203166002900490600052602060002090601f0160209004810192826119c55760008555611a0c565b82601f106119de57805160ff1916838001178555611a0c565b82800160010185558215611a0c579182015b82811115611a0b5782518255916020019190600101906119f0565b5b509050611a199190611aa7565b5090565b828054828255906000526020600020908101928215611a96579160200282015b82811115611a955782518260006101000a81548173ffffffffffffffffffffffffffffffffffffffff021916908373ffffffffffffffffffffffffffffffffffffffff16021790555091602001919060010190611a3d565b5b509050611aa39190611aa7565b5090565b5b80821115611ac0576000816000905550600101611aa8565b509056fe4e616d652073686f756c646e277420626520616e20656d70747920737472696e67214f776e61626c653a206e6577206f776e657220697320746865207a65726f2061646472657373a2646970667358221220d4430311535a17fd7be695f6f6f166efde0f84b2c0c28f8788d1c9165247c28064736f6c63430007050033",
  "source": "// SPDX-License-Identifier: UNLICENSED\npragma solidity 0.7.5;\n\nimport \"@openzeppelin/contracts/access/Ownable.sol\";\nimport \"@openzeppelin/contracts/token/ERC20/IERC20.sol\";\n\nimport \"./LIBWrapper.sol\";\n\ncontract Library is Ownable {\n    IERC20 public LIBToken; \n    LIBWrapper public wrapperContract;\n\n    uint borrowPrice = 10000000000000000000;\n\n    struct Book {\n        string name;\n        uint availableCopiesCount;\n        address[] clientAddresses;\n    }\n    \n    bytes32[] public allBookIDs;\n    \n    mapping (bytes32 => Book) public books;\n    mapping (address => mapping (bytes32 => bool)) public borrowedBooks;\n    \n    event LogAddedBook(bytes32 id);\n    event LIBBalance(uint currentBalance);\n    event LIBBuy(address sender, uint amount);\n    event BookBorrowed(bytes32 id, address client);\n    event BookReturned(bytes32 id, address client);\n\n    constructor(address libTokenAddress, address payable libWrapperAddress) public payable {\n\t   LIBToken = IERC20(libTokenAddress);\n       wrapperContract = LIBWrapper(libWrapperAddress);\n    }\n\n    modifier bookExists(string memory _name) {\n        bytes32 id = callKeccak256(_name);\n        require(books[id].availableCopiesCount == 0, \"This name is already taken!\");\n        _;\n    }\n    \n    modifier isAvailable(bytes32 _id) {\n        require(books[_id].availableCopiesCount > 0, \"This book isn't available!\");\n        _;\n    }\n\n    function wrapToken() public {\n        wrapperContract.wrap();\n    }\n\n    function unwrapToken() public onlyOwner {\n        address wrapperAddress = 0xD9995BAE12FEe327256FFec1e3184d492bD94C31;\n\n        LIBToken.approve(wrapperAddress, borrowPrice);\n        wrapperContract.unwrap(borrowPrice);\n    }\n\n    function createBook(uint _availableCopies, string memory _name) public onlyOwner bookExists(_name) {\n        require(_availableCopies > 0, \"Count shouldn't be 0!\");\n        require(bytes(_name).length > 0, \"Name shouldn't be an empty string!\");\n        \n        address[] memory addresses;\n        Book memory book = Book(_name, _availableCopies, addresses);\n\n        bytes32 id = callKeccak256(_name);\n\n        books[id] = book;\n        allBookIDs.push(id);\n        \n        emit LogAddedBook(id);\n    }\n    \n    function seeAllClientsByBookId(bytes32 _id) public view returns(address[] memory) {\n        return books[_id].clientAddresses;\n    }\n\n    function borrowBook(bytes32 _id) public payable isAvailable(_id) {\n        require(LIBToken.allowance(msg.sender, address(this)) >= borrowPrice, \"Token allowance too low!\");\n        require(!borrowedBooks[msg.sender][_id], \"Already borrowed!\");\n\n        LIBToken.transferFrom(msg.sender, address(this), borrowPrice);\n\n        books[_id].availableCopiesCount--;\n        \n        borrowedBooks[msg.sender][_id] = true;\n        books[_id].clientAddresses.push(msg.sender);\n        \n        emit BookBorrowed(_id, msg.sender);\n    }\n\n    function returnBook(bytes32 _id) public {\n        require(borrowedBooks[msg.sender][_id], \"Not borrowed!\");\n        \n        borrowedBooks[msg.sender][_id] = false;\n        books[_id].availableCopiesCount++;\n        \n        emit BookReturned(_id, msg.sender);\n    }\n\n    function getCurrentBalance() public {\n        uint senderBalance = LIBToken.balanceOf(msg.sender);\n        emit LIBBalance(senderBalance);\n    }\n    \n    function viewAllBooksCount() public view returns(uint) {\n        return allBookIDs.length;\n    }\n    \n    function callKeccak256(string memory _text) private pure returns(bytes32 result) {\n      return keccak256(abi.encodePacked(_text));\n    }\n}",
  "sourcePath": "/Users/milenaatanasova/Documents/onboarding/LimeChain-onboarding/Library/contracts/Library.sol",
  "compiler": {
    "name": "solc",
    "version": "0.7.5+commit.eb77ed08.Emscripten.clang",
    "optimizer": false,
    "runs": 200
  },
  "schemaVersion": "2.3.5",
  "updatedAt": "2021-04-28T06:41:19.822Z"
}