{
    "contractName": "LIBWrapper",
    "abi": [
        {
            "inputs": [
                {
                    "internalType": "address",
                    "name": "libTokenAddress",
                    "type": "address"
                }
            ],
            "stateMutability": "nonpayable",
            "type": "constructor"
        },
        {
            "anonymous": false,
            "inputs": [
                {
                    "indexed": false,
                    "internalType": "address",
                    "name": "sender",
                    "type": "address"
                },
                {
                    "indexed": false,
                    "internalType": "uint256",
                    "name": "amount",
                    "type": "uint256"
                }
            ],
            "name": "LogApprovedTx",
            "type": "event"
        },
        {
            "anonymous": false,
            "inputs": [
                {
                    "indexed": false,
                    "internalType": "address",
                    "name": "sender",
                    "type": "address"
                },
                {
                    "indexed": false,
                    "internalType": "uint256",
                    "name": "amount",
                    "type": "uint256"
                }
            ],
            "name": "LogLIBUnwrapped",
            "type": "event"
        },
        {
            "anonymous": false,
            "inputs": [
                {
                    "indexed": false,
                    "internalType": "address",
                    "name": "sender",
                    "type": "address"
                },
                {
                    "indexed": false,
                    "internalType": "uint256",
                    "name": "amount",
                    "type": "uint256"
                }
            ],
            "name": "LogLIBWrapped",
            "type": "event"
        },
        {
            "stateMutability": "payable",
            "type": "fallback"
        },
        {
            "inputs": [],
            "name": "LIBToken",
            "outputs": [
                {
                    "internalType": "contract LIB",
                    "name": "",
                    "type": "address"
                }
            ],
            "stateMutability": "view",
            "type": "function"
        },
        {
            "stateMutability": "payable",
            "type": "receive"
        },
        {
            "inputs": [],
            "name": "approve",
            "outputs": [],
            "stateMutability": "payable",
            "type": "function"
        },
        {
            "inputs": [],
            "name": "wrap",
            "outputs": [],
            "stateMutability": "payable",
            "type": "function"
        },
        {
            "inputs": [
                {
                    "internalType": "uint256",
                    "name": "value",
                    "type": "uint256"
                }
            ],
            "name": "unwrap",
            "outputs": [],
            "stateMutability": "nonpayable",
            "type": "function"
        }
    ],
    "bytecode": "0x608060405234801561001057600080fd5b506040516109f23803806109f28339818101604052810190610032919061008d565b806000806101000a81548173ffffffffffffffffffffffffffffffffffffffff021916908373ffffffffffffffffffffffffffffffffffffffff160217905550506100ff565b600081519050610087816100e8565b92915050565b60006020828403121561009f57600080fd5b60006100ad84828501610078565b91505092915050565b60006100c1826100c8565b9050919050565b600073ffffffffffffffffffffffffffffffffffffffff82169050919050565b6100f1816100b6565b81146100fc57600080fd5b50565b6108e48061010e6000396000f3fe6080604052600436106100435760003560e01c806312424e3f1461005c5780631ba3192b14610066578063d46eb11914610091578063de0e9a3e1461009b57610052565b36610052576100506100c4565b005b61005a6100c4565b005b610064610279565b005b34801561007257600080fd5b5061007b610362565b6040516100889190610769565b60405180910390f35b6100996100c4565b005b3480156100a757600080fd5b506100c260048036038101906100bd91906105ef565b610386565b005b60003411610107576040517f08c379a00000000000000000000000000000000000000000000000000000000081526004016100fe90610784565b60405180910390fd5b60008054906101000a900473ffffffffffffffffffffffffffffffffffffffff1673ffffffffffffffffffffffffffffffffffffffff166340c10f1933346040518363ffffffff1660e01b8152600401610162929190610740565b600060405180830381600087803b15801561017c57600080fd5b505af1158015610190573d6000803e3d6000fd5b5050505060008054906101000a900473ffffffffffffffffffffffffffffffffffffffff1673ffffffffffffffffffffffffffffffffffffffff166370a08231336040518263ffffffff1660e01b81526004016101ed91906106ee565b60206040518083038186803b15801561020557600080fd5b505afa158015610219573d6000803e3d6000fd5b505050506040513d601f19601f8201168201806040525081019061023d9190610618565b507f9c1359f4b53f71481ac276ccdffa0cc71cd40491a5b8636617ecd8e25d42e2b8333460405161026f929190610740565b60405180910390a1565b60008054906101000a900473ffffffffffffffffffffffffffffffffffffffff1673ffffffffffffffffffffffffffffffffffffffff1663095ea7b333346040518363ffffffff1660e01b81526004016102d4929190610740565b602060405180830381600087803b1580156102ee57600080fd5b505af1158015610302573d6000803e3d6000fd5b505050506040513d601f19601f8201168201806040525081019061032691906105c6565b507fde6a6e598b582450b6236b6ad7bb149509931d63c869d184ebdd9ea70446caf33334604051610358929190610740565b60405180910390a1565b60008054906101000a900473ffffffffffffffffffffffffffffffffffffffff1681565b600081116103c9576040517f08c379a00000000000000000000000000000000000000000000000000000000081526004016103c0906107a4565b60405180910390fd5b60008054906101000a900473ffffffffffffffffffffffffffffffffffffffff1673ffffffffffffffffffffffffffffffffffffffff166323b872dd3330846040518463ffffffff1660e01b815260040161042693929190610709565b602060405180830381600087803b15801561044057600080fd5b505af1158015610454573d6000803e3d6000fd5b505050506040513d601f19601f8201168201806040525081019061047891906105c6565b5060008054906101000a900473ffffffffffffffffffffffffffffffffffffffff1673ffffffffffffffffffffffffffffffffffffffff166342966c68826040518263ffffffff1660e01b81526004016104d291906107c4565b600060405180830381600087803b1580156104ec57600080fd5b505af1158015610500573d6000803e3d6000fd5b505050503373ffffffffffffffffffffffffffffffffffffffff166108fc829081150290604051600060405180830381858888f1935050505015801561054a573d6000803e3d6000fd5b507f434a87dd0568dfbbb4bc8b6b51b072be25ff126809317b293b9ed43aaa84fd0e338260405161057c929190610740565b60405180910390a150565b60008151905061059681610880565b92915050565b6000813590506105ab81610897565b92915050565b6000815190506105c081610897565b92915050565b6000602082840312156105d857600080fd5b60006105e684828501610587565b91505092915050565b60006020828403121561060157600080fd5b600061060f8482850161059c565b91505092915050565b60006020828403121561062a57600080fd5b6000610638848285016105b1565b91505092915050565b61064a81610826565b82525050565b61065981610838565b82525050565b600061066c601a836107df565b91507f5765206e65656420746f2077726170206174206c6561737420310000000000006000830152602082019050919050565b60006106ac601c836107df565b91507f5765206e65656420746f20756e77726170206174206c656173742031000000006000830152602082019050919050565b6106e88161081c565b82525050565b60006020820190506107036000830184610641565b92915050565b600060608201905061071e6000830186610641565b61072b6020830185610641565b61073860408301846106df565b949350505050565b60006040820190506107556000830185610641565b61076260208301846106df565b9392505050565b600060208201905061077e6000830184610650565b92915050565b6000602082019050818103600083015261079d8161065f565b9050919050565b600060208201905081810360008301526107bd8161069f565b9050919050565b60006020820190506107d960008301846106df565b92915050565b600082825260208201905092915050565b60008115159050919050565b600073ffffffffffffffffffffffffffffffffffffffff82169050919050565b6000819050919050565b60006108318261085c565b9050919050565b60006108438261084a565b9050919050565b6000610855826107fc565b9050919050565b60006108678261086e565b9050919050565b6000610879826107fc565b9050919050565b610889816107f0565b811461089457600080fd5b50565b6108a08161081c565b81146108ab57600080fd5b5056fea2646970667358221220806b0a98157b909e4d7ce5dc59badcc635b0cdb074e857fa581e2db9dc6fde2d64736f6c63430007050033",
    "source": "// SPDX-License-Identifier: UNLICENSED\npragma solidity ^0.7.0;\npragma abicoder v2;\n\nimport \"./LIB.sol\";\n\ncontract LIBWrapper {\n\n\tLIB public LIBToken;\n    \n    event LogApprovedTx(address sender, uint256 amount);\n    event LogLIBWrapped(address sender, uint256 amount);\n    event LogLIBUnwrapped(address sender, uint256 amount);\n\n\tconstructor(address libTokenAddress) public {\n\t    LIBToken = LIB(libTokenAddress);\n    }\n\n\tfunction approve() public payable {\n\t\tLIBToken.approve(msg.sender, msg.value);\n\t\temit LogApprovedTx(msg.sender, msg.value);\n\t}\n\n\tfunction wrap() public payable {\n\t\trequire(msg.value > 0, \"We need to wrap at least 1\");\n\n\t\tLIBToken.mint(msg.sender, msg.value);\n\t\tLIBToken.balanceOf(msg.sender);\n\t\temit LogLIBWrapped(msg.sender, msg.value);\n\t}\n\n    function unwrap(uint value) public {\n\t\trequire(value > 0, \"We need to unwrap at least 1\");\n\n\t\tLIBToken.transferFrom(msg.sender, address(this), value);\n\t\tLIBToken.burn(value);\n\t\t\n\t\tmsg.sender.transfer(value);\n\t\temit LogLIBUnwrapped(msg.sender, value);\n\t}\n\n\t receive() external payable {\n\t\twrap();\n\t} \n\n\tfallback() external payable {\n\t\twrap();\n\t} \n}",
    "sourcePath": "/Users/milenaatanasova/Documents/onboarding/LimeChain-onboarding/Library/contracts/LIBWrapper.sol",
    "compiler": {
        "name": "solc",
        "version": "0.7.5+commit.eb77ed08.Emscripten.clang",
        "optimizer": false,
        "runs": 200
    },
    "schemaVersion": "2.3.5",
    "updatedAt": "2021-04-28T07:49:15.962Z"
}